{
  "_format": "hh-sol-artifact-1",
  "contractName": "RiddleQuestFactory",
  "sourceName": "contracts/RiddleQuestFactory.sol",
  "abi": [
    {
      "inputs": [
        {
          "internalType": "contract IVerifier",
          "name": "_verifier",
          "type": "address"
        }
      ],
      "stateMutability": "payable",
      "type": "constructor"
    },
    {
      "anonymous": false,
      "inputs": [
        {
          "indexed": false,
          "internalType": "uint256",
          "name": "questId",
          "type": "uint256"
        },
        {
          "indexed": false,
          "internalType": "address",
          "name": "winner",
          "type": "address"
        }
      ],
      "name": "BountyClaimed",
      "type": "event"
    },
    {
      "anonymous": false,
      "inputs": [
        {
          "indexed": false,
          "internalType": "address",
          "name": "sender",
          "type": "address"
        },
        {
          "indexed": false,
          "internalType": "string",
          "name": "reason",
          "type": "string"
        },
        {
          "indexed": false,
          "internalType": "uint256",
          "name": "questId",
          "type": "uint256"
        }
      ],
      "name": "CreateFailure",
      "type": "event"
    },
    {
      "anonymous": false,
      "inputs": [
        {
          "indexed": false,
          "internalType": "uint256",
          "name": "questId",
          "type": "uint256"
        },
        {
          "indexed": false,
          "internalType": "uint256",
          "name": "bounty",
          "type": "uint256"
        },
        {
          "indexed": false,
          "internalType": "bytes32",
          "name": "solutionHash",
          "type": "bytes32"
        }
      ],
      "name": "QuestCreated",
      "type": "event"
    },
    {
      "anonymous": false,
      "inputs": [
        {
          "indexed": false,
          "internalType": "uint256",
          "name": "questId",
          "type": "uint256"
        }
      ],
      "name": "QuestSolved",
      "type": "event"
    },
    {
      "anonymous": false,
      "inputs": [
        {
          "indexed": false,
          "internalType": "address",
          "name": "sender",
          "type": "address"
        },
        {
          "indexed": false,
          "internalType": "string",
          "name": "reason",
          "type": "string"
        },
        {
          "indexed": false,
          "internalType": "uint256",
          "name": "questId",
          "type": "uint256"
        }
      ],
      "name": "SubmitFailure",
      "type": "event"
    },
    {
      "inputs": [
        {
          "internalType": "uint256",
          "name": "",
          "type": "uint256"
        }
      ],
      "name": "bounties",
      "outputs": [
        {
          "internalType": "uint256",
          "name": "",
          "type": "uint256"
        }
      ],
      "stateMutability": "view",
      "type": "function"
    },
    {
      "inputs": [
        {
          "internalType": "string",
          "name": "_riddle",
          "type": "string"
        },
        {
          "internalType": "bytes32",
          "name": "_solutionHash",
          "type": "bytes32"
        }
      ],
      "name": "createRiddle",
      "outputs": [],
      "stateMutability": "payable",
      "type": "function"
    },
    {
      "inputs": [],
      "name": "getMetadata",
      "outputs": [
        {
          "internalType": "address",
          "name": "_verifier",
          "type": "address"
        },
        {
          "internalType": "uint256",
          "name": "_questId",
          "type": "uint256"
        },
        {
          "internalType": "uint256",
          "name": "_lowerOpenQuestId",
          "type": "uint256"
        }
      ],
      "stateMutability": "view",
      "type": "function"
    },
    {
      "inputs": [
        {
          "internalType": "uint256",
          "name": "_questId",
          "type": "uint256"
        }
      ],
      "name": "getQuestMetadata",
      "outputs": [
        {
          "internalType": "bytes32",
          "name": "_solutionHash",
          "type": "bytes32"
        },
        {
          "internalType": "uint256",
          "name": "_bounty",
          "type": "uint256"
        },
        {
          "internalType": "string",
          "name": "_riddle",
          "type": "string"
        },
        {
          "internalType": "bool",
          "name": "_solved",
          "type": "bool"
        }
      ],
      "stateMutability": "view",
      "type": "function"
    },
    {
      "inputs": [],
      "name": "lowerOpenQuestId",
      "outputs": [
        {
          "internalType": "uint256",
          "name": "",
          "type": "uint256"
        }
      ],
      "stateMutability": "view",
      "type": "function"
    },
    {
      "inputs": [],
      "name": "questId",
      "outputs": [
        {
          "internalType": "uint256",
          "name": "",
          "type": "uint256"
        }
      ],
      "stateMutability": "view",
      "type": "function"
    },
    {
      "inputs": [
        {
          "internalType": "uint256",
          "name": "",
          "type": "uint256"
        }
      ],
      "name": "riddle",
      "outputs": [
        {
          "internalType": "string",
          "name": "",
          "type": "string"
        }
      ],
      "stateMutability": "view",
      "type": "function"
    },
    {
      "inputs": [
        {
          "internalType": "uint256",
          "name": "",
          "type": "uint256"
        }
      ],
      "name": "solutionHash",
      "outputs": [
        {
          "internalType": "bytes32",
          "name": "",
          "type": "bytes32"
        }
      ],
      "stateMutability": "view",
      "type": "function"
    },
    {
      "inputs": [
        {
          "internalType": "uint256",
          "name": "",
          "type": "uint256"
        }
      ],
      "name": "solved",
      "outputs": [
        {
          "internalType": "bool",
          "name": "",
          "type": "bool"
        }
      ],
      "stateMutability": "view",
      "type": "function"
    },
    {
      "inputs": [
        {
          "internalType": "bytes",
          "name": "_proof",
          "type": "bytes"
        },
        {
          "internalType": "uint256",
          "name": "_questId",
          "type": "uint256"
        }
      ],
      "name": "submitGuess",
      "outputs": [],
      "stateMutability": "nonpayable",
      "type": "function"
    },
    {
      "inputs": [],
      "name": "verifier",
      "outputs": [
        {
          "internalType": "contract IVerifier",
          "name": "",
          "type": "address"
        }
      ],
      "stateMutability": "view",
      "type": "function"
    }
  ],
  "bytecode": "0x60a0604052604051610f47380380610f478339810160408190526020916039565b5f60048190556005556001600160a01b03166080526064565b5f602082840312156048575f5ffd5b81516001600160a01b0381168114605d575f5ffd5b9392505050565b608051610ebe6100895f395f818160be0152818161018a01526104830152610ebe5ff3fe6080604052600436106100a9575f3560e01c80639a90ba4611610071578063b77334b21161004c578063b77334b214610249578063dc2f874414610278578063f2ffc309146102a3575f5ffd5b80639a90ba46146101d15780639e2ed9ad146101fd578063a17e041b14610228575f5ffd5b80632b7ac3f3146100ad5780632c5868b5146100fd57806334a834ce1461013b57806344a22c361461015e5780637a5b4f5914610173575b5f5ffd5b3480156100b8575f5ffd5b506100e07f000000000000000000000000000000000000000000000000000000000000000081565b6040516001600160a01b0390911681526020015b60405180910390f35b348015610108575f5ffd5b5061012b610117366004610823565b60036020525f908152604090205460ff1681565b60405190151581526020016100f4565b348015610146575f5ffd5b5061015060055481565b6040519081526020016100f4565b348015610169575f5ffd5b5061015060045481565b34801561017e575f5ffd5b506101ac6004546005547f000000000000000000000000000000000000000000000000000000000000000092565b604080516001600160a01b0390941684526020840192909252908201526060016100f4565b3480156101dc575f5ffd5b506101f06101eb366004610823565b6102b6565b6040516100f49190610868565b348015610208575f5ffd5b50610150610217366004610823565b60016020525f908152604090205481565b348015610233575f5ffd5b50610247610242366004610881565b61034d565b005b348015610254575f5ffd5b50610268610263366004610823565b6105df565b6040516100f494939291906108f3565b348015610283575f5ffd5b50610150610292366004610823565b5f6020819052908152604090205481565b6102476102b1366004610938565b6106b1565b60026020525f9081526040902080546102ce906109ed565b80601f01602080910402602001604051908101604052809291908181526020018280546102fa906109ed565b80156103455780601f1061031c57610100808354040283529160200191610345565b820191905f5260205f20905b81548152906001019060200180831161032857829003601f168201915b505050505081565b5f8181526003602052604090205460ff16156103bd577fc11b15469ec883bea0ce48ae612b15f30d99075bd562b32a23ffc8a296839a2f3382604051610394929190610a25565b60405180910390a160405162461bcd60e51b81526004016103b490610a76565b60405180910390fd5b5f81815260016020526040902054610420577fc11b15469ec883bea0ce48ae612b15f30d99075bd562b32a23ffc8a296839a2f3382604051610400929190610aaf565b60405180910390a160405162461bcd60e51b81526004016103b490610aee565b6040805160018082528183019092525f91602080830190803683375050505f8381526001602052604081205482519293509183919061046157610461610b1e565b6020908102919091010152604051633a94343960e21b81526001600160a01b037f0000000000000000000000000000000000000000000000000000000000000000169063ea50d0e4906104bc90879087908690600401610b32565b602060405180830381865afa9250505080156104f5575060408051601f3d908101601f191682019092526104f291810190610baa565b60015b61054a577fc11b15469ec883bea0ce48ae612b15f30d99075bd562b32a23ffc8a296839a2f338360405161052a929190610bc9565b60405180910390a160405162461bcd60e51b81526004016103b490610c14565b505f8281526003602052604090819020805460ff19166001179055517fdf0a51f149bda50bfee1bc536ef1f869302b89ae91d38e0296cfe0fe95dcf77e906105959084815260200190565b60405180910390a160055482036105d9575b6005545f9081526003602052604090205460ff16156105d95760058054905f6105cf83610c64565b91905055506105a7565b50505050565b5f81815260016020908152604080832054838352818420546002845282852060039094529184205483548594606094869493909260ff909116908290610624906109ed565b80601f0160208091040260200160405190810160405280929190818152602001828054610650906109ed565b801561069b5780601f106106725761010080835404028352916020019161069b565b820191905f5260205f20905b81548152906001019060200180831161067e57829003601f168201915b5050505050915093509350935093509193509193565b345f03610717577fdecc889cb7dd58d60508dc09e5e3e0dbeac2878d9aa63172c751847ebfe40e743360045460016106e99190610c7c565b6040516106f7929190610c8f565b60405180910390a160405162461bcd60e51b81526004016103b490610ccc565b8061077b577fdecc889cb7dd58d60508dc09e5e3e0dbeac2878d9aa63172c751847ebfe40e7433600454600161074d9190610c7c565b60405161075b929190610cfa565b60405180910390a160405162461bcd60e51b81526004016103b490610d45565b60048054905f61078a83610c64565b9091555050600480545f9081526001602090815260408083208590559254825260029052206107b98382610dcd565b506004545f90815260208190526040812034905560055490036107dd576004546005555b6004546040805191825234602083015281018290527f4bd3612c87b5c4c439463768f70ccc8a6a26983fdd648246f7c3f7efd07025879060600160405180910390a15050565b5f60208284031215610833575f5ffd5b5035919050565b5f81518084528060208401602086015e5f602082860101526020601f19601f83011685010191505092915050565b602081525f61087a602083018461083a565b9392505050565b5f5f5f60408486031215610893575f5ffd5b833567ffffffffffffffff8111156108a9575f5ffd5b8401601f810186136108b9575f5ffd5b803567ffffffffffffffff8111156108cf575f5ffd5b8660208284010111156108e0575f5ffd5b6020918201979096509401359392505050565b848152836020820152608060408201525f610911608083018561083a565b9050821515606083015295945050505050565b634e487b7160e01b5f52604160045260245ffd5b5f5f60408385031215610949575f5ffd5b823567ffffffffffffffff81111561095f575f5ffd5b8301601f8101851361096f575f5ffd5b803567ffffffffffffffff81111561098957610989610924565b604051601f8201601f19908116603f0116810167ffffffffffffffff811182821017156109b8576109b8610924565b6040528181528282016020018710156109cf575f5ffd5b816020840160208301375f6020928201830152969401359450505050565b600181811c90821680610a0157607f821691505b602082108103610a1f57634e487b7160e01b5f52602260045260245ffd5b50919050565b6001600160a01b0383168152606060208201525f610a67606083016014815273145d595cdd08185b1c9958591e481cdbdb1d995960621b602082015260400190565b90508260408301529392505050565b602081525f610aa9602083016014815273145d595cdd08185b1c9958591e481cdbdb1d995960621b602082015260400190565b92915050565b6001600160a01b0383168152606060208201525f610a67606083016011815270145d595cdd081b9bdd0818dc99585d1959607a1b602082015260400190565b602081525f610aa9602083016011815270145d595cdd081b9bdd0818dc99585d1959607a1b602082015260400190565b634e487b7160e01b5f52603260045260245ffd5b60408152826040820152828460608301375f606084830101525f601f19601f85011682016060810160608483030160208501528085518083526080840191506020870193505f92505b80831015610b9e5783518252602082019150602084019350600183019250610b7b565b50979650505050505050565b5f60208284031215610bba575f5ffd5b8151801515811461087a575f5ffd5b6001600160a01b0383168152606060208201525f610a6760608301601981527f50726f6f6620766572696669636174696f6e206661696c656400000000000000602082015260400190565b602081525f610aa960208301601981527f50726f6f6620766572696669636174696f6e206661696c656400000000000000602082015260400190565b634e487b7160e01b5f52601160045260245ffd5b5f60018201610c7557610c75610c50565b5060010190565b80820180821115610aa957610aa9610c50565b6001600160a01b0383168152606060208201525f610a6760608301600f81526e109bdd5b9d1e481c995c5d5a5c9959608a1b602082015260400190565b602081525f610aa960208301600f81526e109bdd5b9d1e481c995c5d5a5c9959608a1b602082015260400190565b6001600160a01b0383168152606060208201525f610a6760608301601681527f536f6c7574696f6e206861736820726571756972656400000000000000000000602082015260400190565b602081525f610aa960208301601681527f536f6c7574696f6e206861736820726571756972656400000000000000000000602082015260400190565b601f821115610dc857805f5260205f20601f840160051c81016020851015610da65750805b601f840160051c820191505b81811015610dc5575f8155600101610db2565b50505b505050565b815167ffffffffffffffff811115610de757610de7610924565b610dfb81610df584546109ed565b84610d81565b6020601f821160018114610e2d575f8315610e165750848201515b5f19600385901b1c1916600184901b178455610dc5565b5f84815260208120601f198516915b82811015610e5c5787850151825560209485019460019092019101610e3c565b5084821015610e7957868401515f19600387901b60f8161c191681555b50505050600190811b0190555056fea26469706673582212201e1cbc10b9f49b0cd1f45ae6cfe31a016489593b59935db0738887d5851ad65c64736f6c634300081c0033",
  "linkReferences": {},
  "deployedLinkReferences": {}
}