{
  "_format": "hh-sol-artifact-1",
  "contractName": "VotingQuestFactory",
  "sourceName": "contracts/VotingQuest.sol",
  "abi": [
    {
      "inputs": [
        {
          "internalType": "contract IVerifier",
          "name": "_verifier",
          "type": "address"
        }
      ],
      "stateMutability": "payable",
      "type": "constructor"
    },
    {
      "anonymous": false,
      "inputs": [
        {
          "indexed": false,
          "internalType": "uint256",
          "name": "questId",
          "type": "uint256"
        },
        {
          "indexed": false,
          "internalType": "address",
          "name": "winner",
          "type": "address"
        }
      ],
      "name": "BountyClaimed",
      "type": "event"
    },
    {
      "anonymous": false,
      "inputs": [
        {
          "indexed": false,
          "internalType": "uint256",
          "name": "questId",
          "type": "uint256"
        },
        {
          "indexed": false,
          "internalType": "uint256",
          "name": "voteCandidate",
          "type": "uint256"
        },
        {
          "indexed": false,
          "internalType": "bytes32",
          "name": "voteSecret",
          "type": "bytes32"
        }
      ],
      "name": "ProofSubmitted",
      "type": "event"
    },
    {
      "anonymous": false,
      "inputs": [
        {
          "indexed": false,
          "internalType": "uint256",
          "name": "questId",
          "type": "uint256"
        },
        {
          "indexed": false,
          "internalType": "uint256",
          "name": "bounty",
          "type": "uint256"
        },
        {
          "indexed": false,
          "internalType": "uint256",
          "name": "questObjective",
          "type": "uint256"
        }
      ],
      "name": "QuestCreated",
      "type": "event"
    },
    {
      "anonymous": false,
      "inputs": [
        {
          "indexed": false,
          "internalType": "uint256",
          "name": "questId",
          "type": "uint256"
        },
        {
          "indexed": false,
          "internalType": "bytes32",
          "name": "winnerSecret",
          "type": "bytes32"
        }
      ],
      "name": "QuestSolved",
      "type": "event"
    },
    {
      "inputs": [
        {
          "internalType": "uint256",
          "name": "",
          "type": "uint256"
        }
      ],
      "name": "bounties",
      "outputs": [
        {
          "internalType": "uint256",
          "name": "",
          "type": "uint256"
        }
      ],
      "stateMutability": "view",
      "type": "function"
    },
    {
      "inputs": [
        {
          "internalType": "bytes",
          "name": "_secret",
          "type": "bytes"
        },
        {
          "internalType": "uint256",
          "name": "_questId",
          "type": "uint256"
        }
      ],
      "name": "claimBounty",
      "outputs": [],
      "stateMutability": "nonpayable",
      "type": "function"
    },
    {
      "inputs": [
        {
          "internalType": "uint256",
          "name": "_bounty",
          "type": "uint256"
        },
        {
          "internalType": "uint256",
          "name": "_questObjective",
          "type": "uint256"
        }
      ],
      "name": "createQuest",
      "outputs": [],
      "stateMutability": "nonpayable",
      "type": "function"
    },
    {
      "inputs": [],
      "name": "getMetadata",
      "outputs": [
        {
          "internalType": "address",
          "name": "_verifier",
          "type": "address"
        },
        {
          "internalType": "uint256",
          "name": "_questId",
          "type": "uint256"
        },
        {
          "internalType": "uint256",
          "name": "_lowerOpenQuestId",
          "type": "uint256"
        }
      ],
      "stateMutability": "view",
      "type": "function"
    },
    {
      "inputs": [
        {
          "internalType": "uint256",
          "name": "_questId",
          "type": "uint256"
        }
      ],
      "name": "getQuestMetadata",
      "outputs": [
        {
          "internalType": "bytes32",
          "name": "_winnerSecret",
          "type": "bytes32"
        },
        {
          "internalType": "uint256",
          "name": "_bounty",
          "type": "uint256"
        },
        {
          "internalType": "uint256",
          "name": "_questObjective",
          "type": "uint256"
        },
        {
          "internalType": "bool",
          "name": "_solved",
          "type": "bool"
        }
      ],
      "stateMutability": "view",
      "type": "function"
    },
    {
      "inputs": [],
      "name": "lowerOpenQuestId",
      "outputs": [
        {
          "internalType": "uint256",
          "name": "",
          "type": "uint256"
        }
      ],
      "stateMutability": "view",
      "type": "function"
    },
    {
      "inputs": [],
      "name": "questId",
      "outputs": [
        {
          "internalType": "uint256",
          "name": "",
          "type": "uint256"
        }
      ],
      "stateMutability": "view",
      "type": "function"
    },
    {
      "inputs": [
        {
          "internalType": "uint256",
          "name": "",
          "type": "uint256"
        }
      ],
      "name": "questObjective",
      "outputs": [
        {
          "internalType": "uint256",
          "name": "",
          "type": "uint256"
        }
      ],
      "stateMutability": "view",
      "type": "function"
    },
    {
      "inputs": [
        {
          "internalType": "uint256",
          "name": "",
          "type": "uint256"
        }
      ],
      "name": "solved",
      "outputs": [
        {
          "internalType": "bool",
          "name": "",
          "type": "bool"
        }
      ],
      "stateMutability": "view",
      "type": "function"
    },
    {
      "inputs": [
        {
          "internalType": "bytes",
          "name": "_proof",
          "type": "bytes"
        },
        {
          "internalType": "bytes32[]",
          "name": "_publicInputs",
          "type": "bytes32[]"
        },
        {
          "internalType": "uint256",
          "name": "_questId",
          "type": "uint256"
        },
        {
          "internalType": "uint256",
          "name": "_voteCandidate",
          "type": "uint256"
        },
        {
          "internalType": "bytes32",
          "name": "_voteSecret",
          "type": "bytes32"
        }
      ],
      "name": "submitVote",
      "outputs": [],
      "stateMutability": "nonpayable",
      "type": "function"
    },
    {
      "inputs": [],
      "name": "verifier",
      "outputs": [
        {
          "internalType": "contract IVerifier",
          "name": "",
          "type": "address"
        }
      ],
      "stateMutability": "view",
      "type": "function"
    },
    {
      "inputs": [
        {
          "internalType": "uint256",
          "name": "",
          "type": "uint256"
        },
        {
          "internalType": "uint256",
          "name": "",
          "type": "uint256"
        }
      ],
      "name": "voteCandidates",
      "outputs": [
        {
          "internalType": "uint256",
          "name": "",
          "type": "uint256"
        }
      ],
      "stateMutability": "view",
      "type": "function"
    },
    {
      "inputs": [
        {
          "internalType": "uint256",
          "name": "",
          "type": "uint256"
        },
        {
          "internalType": "bytes32",
          "name": "",
          "type": "bytes32"
        }
      ],
      "name": "voteSecrets",
      "outputs": [
        {
          "internalType": "uint256",
          "name": "",
          "type": "uint256"
        }
      ],
      "stateMutability": "view",
      "type": "function"
    },
    {
      "inputs": [
        {
          "internalType": "uint256",
          "name": "",
          "type": "uint256"
        }
      ],
      "name": "winnerSecret",
      "outputs": [
        {
          "internalType": "bytes32",
          "name": "",
          "type": "bytes32"
        }
      ],
      "stateMutability": "view",
      "type": "function"
    }
  ],
  "bytecode": "0x60a0604052604051610d85380380610d858339810160408190526020916039565b5f60068190556007556001600160a01b03166080526064565b5f602082840312156048575f5ffd5b81516001600160a01b0381168114605d575f5ffd5b9392505050565b608051610cfb61008a5f395f8181610103015281816101e801526106570152610cfb5ff3fe608060405234801561000f575f5ffd5b50600436106100e5575f3560e01c80637a5b4f5911610088578063b77334b211610063578063b77334b214610261578063da4bb9e6146102c6578063dc2f8744146102d9578063f01eb4e9146102f8575f5ffd5b80637a5b4f59146101dd578063850bc0dd1461022f578063b459b4c114610242575f5ffd5b80632c657d34116100c35780632c657d341461017457806334a834ce146101ac57806344a22c36146101b557806378cbfc79146101be575f5ffd5b80630cfd7cb1146100e95780632b7ac3f3146100fe5780632c5868b514610142575b5f5ffd5b6100fc6100f736600461096e565b61031f565b005b6101257f000000000000000000000000000000000000000000000000000000000000000081565b6040516001600160a01b0390911681526020015b60405180910390f35b61016461015036600461098e565b60056020525f908152604090205460ff1681565b6040519015158152602001610139565b61019e61018236600461096e565b600160209081525f928352604080842090915290825290205481565b604051908152602001610139565b61019e60075481565b61019e60065481565b61019e6101cc36600461098e565b60046020525f908152604090205481565b61020a6006546007547f000000000000000000000000000000000000000000000000000000000000000092565b604080516001600160a01b039094168452602084019290925290820152606001610139565b6100fc61023d3660046109ea565b610452565b61019e61025036600461098e565b60026020525f908152604090205481565b6102a461026f36600461098e565b5f9081526002602090815260408083205460038352818420546004845282852054600590945291909320549293909260ff1690565b6040805194855260208501939093529183015215156060820152608001610139565b6100fc6102d4366004610a32565b6105a4565b61019e6102e736600461098e565b60036020525f908152604090205481565b61019e61030636600461096e565b5f60208181529281526040808220909352908152205481565b5f82116103735760405162461bcd60e51b815260206004820152600f60248201527f426f756e7479207265717569726564000000000000000000000000000000000060448201526064015b60405180910390fd5b5f81116103c25760405162461bcd60e51b815260206004820152601860248201527f5175657374206f626a6563746976652072657175697265640000000000000000604482015260640161036a565b60068054905f6103d183610ae7565b9091555050600680545f9081526003602090815260408083208690559254825260049052908120829055600754900361040b576006546007555b600654604080519182526020820184905281018290527f292695de237dc24c669ae795d1a0ca0a36499b22d485a3730e866a1ba36ad1b19060600160405180910390a15050565b5f8181526005602052604090205460ff166104af5760405162461bcd60e51b815260206004820152601060248201527f5175657374206e6f7420736f6c76656400000000000000000000000000000000604482015260640161036a565b82826040516104bf929190610b0b565b604051809103902060025f8381526020019081526020015f2054146105265760405162461bcd60e51b815260206004820152600e60248201527f496e76616c696420736563726574000000000000000000000000000000000000604482015260640161036a565b5f8181526003602052604080822080549083905590519091339183156108fc0291849190818181858888f19350505050158015610565573d5f5f3e3d5ffd5b50604080518381523360208201527fbf59c0d059a57ebf273b4b1643599fc4b48cf5effdd82113a740ed64d262ec93910160405180910390a150505050565b5f8381526005602052604090205460ff16156106025760405162461bcd60e51b815260206004820152601460248201527f517565737420616c726561647920736f6c766564000000000000000000000000604482015260640161036a565b6106406040518060400160405280600f81526020017f566572696679696e672070726f6f6600000000000000000000000000000000008152506108f0565b604051633a94343960e21b81526001600160a01b037f0000000000000000000000000000000000000000000000000000000000000000169063ea50d0e490610692908a908a908a908a90600401610b1a565b602060405180830381865afa9250505080156106cb575060408051601f3d908101601f191682019092526106c891810190610b94565b60015b610758576106d7610bba565b806308c379a00361074e57506106eb610c0c565b806106f65750610750565b6107346040518060400160405280601981526020017f50726f6f6620766572696669636174696f6e206661696c6564000000000000008152506108f0565b8060405162461bcd60e51b815260040161036a9190610c90565b505b3d5f5f3e3d5ffd5b506107976040518060400160405280600e81526020017f50726f6f662076657269666965640000000000000000000000000000000000008152506108f0565b5f8381526020818152604080832085845290915281208054916107b983610ae7565b90915550505f83815260016020908152604080832084845290915281208054916107e283610ae7565b909155505060408051848152602081018490529081018290527f9b5cdf2a1d86062250bc359360ca976cc957376d56fd42bbea88d776805c9a519060600160405180910390a15f838152600460209081526040808320546001835281842085855290925290912054106108e7575f838152600560209081526040808320805460ff19166001179055600282529182902083905581518581529081018390527fbe329237154f9baf9a0511caeb9dce74995db5d02a409ce32577b1bbdb46792d910160405180910390a160075483036108e7575b6007545f9081526005602052604090205460ff16156108e75760078054905f6108dd83610ae7565b91905055506108b5565b50505050505050565b610948816040516024016109049190610c90565b60408051601f198184030181529190526020810180517bffffffffffffffffffffffffffffffffffffffffffffffffffffffff1663104c13eb60e21b17905261094b565b50565b610948815f6a636f6e736f6c652e6c6f6790505f5f835160208501845afa505050565b5f5f6040838503121561097f575f5ffd5b50508035926020909101359150565b5f6020828403121561099e575f5ffd5b5035919050565b5f5f83601f8401126109b5575f5ffd5b50813567ffffffffffffffff8111156109cc575f5ffd5b6020830191508360208285010111156109e3575f5ffd5b9250929050565b5f5f5f604084860312156109fc575f5ffd5b833567ffffffffffffffff811115610a12575f5ffd5b610a1e868287016109a5565b909790965060209590950135949350505050565b5f5f5f5f5f5f5f60a0888a031215610a48575f5ffd5b873567ffffffffffffffff811115610a5e575f5ffd5b610a6a8a828b016109a5565b909850965050602088013567ffffffffffffffff811115610a89575f5ffd5b8801601f81018a13610a99575f5ffd5b803567ffffffffffffffff811115610aaf575f5ffd5b8a60208260051b8401011115610ac3575f5ffd5b979a9699506020019760408101359660608201359650608090910135945092505050565b5f60018201610b0457634e487b7160e01b5f52601160045260245ffd5b5060010190565b818382375f9101908152919050565b60408152836040820152838560608301375f606085830101525f601f19601f860116820160608382030160208401528360608201527f07ffffffffffffffffffffffffffffffffffffffffffffffffffffffffffffff841115610b7b575f5ffd5b8360051b80866080840137016080019695505050505050565b5f60208284031215610ba4575f5ffd5b81518015158114610bb3575f5ffd5b9392505050565b5f60033d1115610bd05760045f5f3e505f5160e01c5b90565b601f8201601f1916810167ffffffffffffffff81118282101715610c0557634e487b7160e01b5f52604160045260245ffd5b6040525050565b5f60443d1015610c195790565b6040513d600319016004823e80513d602482011167ffffffffffffffff82111715610c4357505090565b808201805167ffffffffffffffff811115610c5f575050505090565b3d8401600319018282016020011115610c79575050505090565b610c8860208285010185610bd3565b509392505050565b602081525f82518060208401528060208501604085015e5f604082850101526040601f19601f8301168401019150509291505056fea2646970667358221220405627fc5ce247d172e9232223151121bb16742e288d595caa3e4ed6f49a002964736f6c634300081c0033",
  "linkReferences": {},
  "deployedLinkReferences": {}
}